:10000000300700201D070000790700007907000075
:100010007907000079070000790700000000000060
:100020000000000000000000000000007907000050
:100030007907000000000000790700007907000040
:1000400079070000790700007907000079070000B0
:1000500079070000790700007907000079070000A0
:100060007907000079070000790700007907000090
:100070007907000079070000790700007907000080
:10008000790700001D0100007907000095010000BC
:100090007907000079070000790700007907000060
:1000A0007907000079070000790700007907000050
:1000B0007907000079070000790700007907000040
:1000C0007907000079070000790700007907000030
:1000D0007907000079070000790700007907000020
:1000E0007907000079070000790700007907000010
:1000F0007907000079070000790700007907000000
:1001000080B483B000AF786039607B6824333A688C
:100110001A600C37BD465DF8047B704780B582B02D
:1001200000AF174B1A68174B1B68642101FB02F2E2
:1001300013449A00144B13447B601448032100F0CD
:100140001FFB124803217A6800F02CFB0D4B1B6843
:100150005A1C0C4B1A600B4B1B68B3F57A7F0BD300
:10016000084B00221A60064B1B6883F00102044B07
:100170001A60074B01221A600837BD4680BD00BFD8
:100180002003002024030020000000200080034002
:100190002803002080B500AF04480421FFF7B0FF1A
:1001A0000348032100F028FB80BD00BF000003408E
:1001B0000080034080B582B000AF1648102100F0E7
:1001C00097FA154800F034F8144800F055F8144830
:1001D0001021EF2200F078FA00233B6002E03B6838
:1001E00001333B603A680F4B9A42F8D90C48102112
:1001F000102200F069FA0C4B1B68002B08D00A4B48
:1002000000221A60094B1B6883F001037B60DEE764
:10021000DDE700BF00600040200000200004C004B3
:10022000005002403F0D030028030020200300205F
:1002300080B483B000AF78607B681A0F0B4B53F823
:1002400022307A68110F094A52F8212011687A6821
:1002500090B27A6802F4F812120C00FA02F20A4321
:100260001A600C37BD465DF8047B70474C080000EF
:1002700001387FF4FDAF704780B586B000AF78607D
:10028000774B1B6803F0E043002B06D0744B1A68D1
:10029000744B1340B3F1805F03D17B68002B00DA0D
:1002A000DBE0714B1B683B61704B1B68FB603B697B
:1002B00043F400633B613B6923F480033B61FB68CB
:1002C00043F40063FB60684B3A691A60674BFA6855
:1002D0001A603B6903F00203002B04D07B6803F033
:1002E0000203002B09D03B6903F00103002B2BD044
:1002F0007B6803F00103002B26D17B6863F00303C6
:100300003A6913403B61584B3A691A60FB68002B0D
:1003100009DAFB6803F07003302B0CD0FB6803F0A4
:100320007003702B07D0FB68002B09DB3B6903F0DF
:100330003003302B04D14FF48050FFF799FF03E0D6
:100340004FF40020FFF794FF3B6923F45F5323F041
:1003500030033B617A6843F2F07313403A69134308
:100360003B61FA68424B1340FB607A68414B134093
:10037000FA681343FB607B6803F00803DB00FA684C
:100380001343FB603C4B40221A60FB68002B06DAEB
:10039000364BFA681A60344B3A691A6005E0324B02
:1003A0003A691A60314BFA681A601020FFF760FF53
:1003B0003B6923F0F86323F003033B617A682F4B1A
:1003C00013403A6913433B61FB6823F0FC53FB6025
:1003D0007B6803F0FC53FA681343FB607B6803F00F
:1003E0008043002B0ED03B6943F480033B61FB68E4
:1003F00023F48003FB607A68214B1340FA681343AF
:10040000FB6003E0FB6823F08043FB607B6803F440
:100410000063002B18D14FF400437B6109E0194BB6
:100420001B6803F04003002B00D005E07B69013B13
:100430007B617B69002BF2D13B6923F400633B6154
:10044000FB6823F40063FB60074B3A691A60074BB3
:10045000FA681A601020FFF70BFF1837BD4680BD01
:1004600000E00F400000FF7060E00F4070E00F40C0
:100470008FDFFF7F3020008058E00F400300C0076F
:100480000000404050E00F4080B485B000AFF860FD
:100490000B467A60FB72FB6803F580631A467B6843
:1004A00003F00103002B06D0FB6803F58063196895
:1004B000FB7A0B4306E0FB6803F580631968FB7A5F
:1004C000DB430B401360FB6803F584631A467B68CB
:1004D00003F00203002B06D0FB6803F58463196860
:1004E000FB7A0B4306E0FB6803F584631968FB7A2B
:1004F000DB430B4013601437BD465DF8047B704747
:1005000080B485B000AFF8607A603B600B46FB7248
:10051000FB6803F5A0631A467B6803F00103002B18
:1005200006D0FB6803F5A0631968FB7A0B4306E06D
:10053000FB6803F5A0631968FB7ADB430B4013608B
:10054000FB6803F204531A467B6803F00203002B96
:1005500006D0FB6803F204531968FB7A0B4306E0EC
:10056000FB6803F204531968FB7ADB430B4013600A
:10057000FB6803F5A1631A467B6803F00403002BB4
:1005800006D0FB6803F5A1631968FB7A0B4306E00C
:10059000FB6803F5A1631968FB7ADB430B4013602A
:1005A000FB6803F5A3631A467B6803F00803002B7E
:1005B00006D0FB6803F5A3631968FB7A0B4306E0DA
:1005C000FB6803F5A3631968FB7ADB430B401360F8
:1005D000FB6803F20C531A463B6803F00103002B3F
:1005E00006D0FB6803F20C531968FB7A0B4306E054
:1005F000FB6803F20C531968FB7ADB430B40136072
:10060000FB6803F5A2631A463B6803F00203002B64
:1006100006D0FB6803F5A2631968FB7A0B4306E07A
:10062000FB6803F5A2631968FB7ADB430B40136098
:10063000FB6803F214531A463B6803F00403002BD3
:1006400006D0FB6803F214531968FB7A0B4306E0EB
:10065000FB6803F214531968FB7ADB430B40136009
:10066000FB6803F21C531A463B6803F00803002B97
:1006700006D0FB6803F21C531968FB7A0B4306E0B3
:10068000FB6803F21C531968FB7ADB430B401360D1
:10069000FB6803F5A5631A463B68002B06D1FB688F
:1006A00003F5A5631968FB7A0B4306E0FB6803F5C5
:1006B000A5631968FB7ADB430B4013601437BD4612
:1006C0005DF8047B704700BF80B483B000AF7860F2
:1006D00013460A46FA70BB70FB789B001A467B688B
:1006E0001344BA781A600C37BD465DF8047B704736
:1006F00080B582B000AF78600B46FB70FB787868FD
:10070000194601220823FFF7FBFEFB78786819469B
:100710000122FFF7B9FE0837BD4680BD80B582B023
:1007200000AF104B7B60104B3B6007E03B681A1D2D
:100730003A607A68111D796012681A603A680B4B4A
:100740009A42F3D30A480B494FF000028842B8BFDF
:1007500040F8042BFFF6FAAFFFF72CFD0837BD4633
:1007600080BD00BFCC080000000000200000002079
:10077000000000202C03002080B400AFFEE700BF83
:1007800080B483B000AF786039607B680C333A681E
:10079000012101FA02F21A600C37BD465DF8047BB4
:1007A000704700BF80B487B000AFF860B9607A606E
:1007B000BB6802335B01FA681344FB6000237B6172
:1007C00009E07B681A1D7A60FA68083212681A60BC
:1007D0007B6901337B61FB680C331B6803F4807316
:1007E000002B02D17B69072BEBD97B6918461C379C
:1007F000BD465DF8047B704790B482B000AF78606E
:1008000039607B6828331A467B68283319683B684F
:100810001B0C1B04386800F00F00012404FA00F0E0
:1008200003430B4313600837BD4690BC704700BFBD
:1008300010E00F4014E00F401CE00F4010E00F40AC
:1008400040E00F4044E00F4048E00F4000E10F401F
:1008500004E10F4008E10F4010E10F4014E10F40A8
:1008600018E10F4020E10F4024E10F4028E10F4044
:1008700040420F0000201C0080841E0000802500E4
:10088000999E36000040380000093D0000803E007F
:1008900000004B00404B4C0000204E00808D5B0060
:1008A00000C05D000080700000127A0000007D0032
:1008B00080969800001BB7000080BB00C0E8CE0007
:0C08C000647ADA000024F4000000FA0062
:00000001FF
